{
  "contractName": "AccessControl",
  "abi": [
    {
      "inputs": [
        {
          "internalType": "address",
          "name": "_ehrRegistryAddress",
          "type": "address"
        }
      ],
      "stateMutability": "nonpayable",
      "type": "constructor"
    },
    {
      "anonymous": false,
      "inputs": [
        {
          "indexed": true,
          "internalType": "address",
          "name": "patient",
          "type": "address"
        },
        {
          "indexed": true,
          "internalType": "address",
          "name": "doctor",
          "type": "address"
        }
      ],
      "name": "AccessGranted",
      "type": "event"
    },
    {
      "anonymous": false,
      "inputs": [
        {
          "indexed": true,
          "internalType": "address",
          "name": "patient",
          "type": "address"
        },
        {
          "indexed": true,
          "internalType": "address",
          "name": "doctor",
          "type": "address"
        }
      ],
      "name": "AccessRevoked",
      "type": "event"
    },
    {
      "inputs": [
        {
          "internalType": "address",
          "name": "",
          "type": "address"
        },
        {
          "internalType": "address",
          "name": "",
          "type": "address"
        }
      ],
      "name": "accessPermissions",
      "outputs": [
        {
          "internalType": "bool",
          "name": "",
          "type": "bool"
        }
      ],
      "stateMutability": "view",
      "type": "function",
      "constant": true
    },
    {
      "inputs": [],
      "name": "ehrRegistry",
      "outputs": [
        {
          "internalType": "contract EHRRegistry",
          "name": "",
          "type": "address"
        }
      ],
      "stateMutability": "view",
      "type": "function",
      "constant": true
    },
    {
      "inputs": [
        {
          "internalType": "address",
          "name": "_doctorId",
          "type": "address"
        }
      ],
      "name": "grantAccess",
      "outputs": [],
      "stateMutability": "nonpayable",
      "type": "function"
    },
    {
      "inputs": [
        {
          "internalType": "address",
          "name": "_doctorId",
          "type": "address"
        }
      ],
      "name": "revokeAccess",
      "outputs": [],
      "stateMutability": "nonpayable",
      "type": "function"
    },
    {
      "inputs": [
        {
          "internalType": "address",
          "name": "_patientId",
          "type": "address"
        },
        {
          "internalType": "address",
          "name": "_doctorId",
          "type": "address"
        }
      ],
      "name": "hasAccess",
      "outputs": [
        {
          "internalType": "bool",
          "name": "",
          "type": "bool"
        }
      ],
      "stateMutability": "view",
      "type": "function",
      "constant": true
    }
  ],
  "bytecode": "0x608060405234801561001057600080fd5b506040516105d23803806105d283398101604081905261002f91610054565b600080546001600160a01b0319166001600160a01b0392909216919091179055610082565b600060208284031215610065578081fd5b81516001600160a01b038116811461007b578182fd5b9392505050565b610541806100916000396000f3fe608060405234801561001057600080fd5b50600436106100575760003560e01c80630ae5e7391461005c5780631709ef07146100715780634e98ce2e1461009a57806364b3b525146100af57806385e68531146100c2575b600080fd5b61006f61006a3660046103dc565b6100d5565b005b61008461007f3660046103fd565b610271565b6040516100919190610463565b60405180910390f35b6100a261029f565b604051610091919061044f565b6100846100bd3660046103fd565b6102ae565b61006f6100d03660046103dc565b6102ce565b600054604051638f9c79ed60e01b81526001600160a01b0390911690638f9c79ed9061010590339060040161044f565b60206040518083038186803b15801561011d57600080fd5b505afa158015610131573d6000803e3d6000fd5b505050506040513d601f19601f82011682018060405250810190610155919061042f565b61017a5760405162461bcd60e51b8152600401610171906104d4565b60405180910390fd5b600054604051634cb2206360e11b81526001600160a01b039091169063996440c6906101aa90849060040161044f565b60206040518083038186803b1580156101c257600080fd5b505afa1580156101d6573d6000803e3d6000fd5b505050506040513d601f19601f820116820180604052508101906101fa919061042f565b6102165760405162461bcd60e51b8152600401610171906104a5565b3360008181526001602081815260408084206001600160a01b0387168086529252808420805460ff191690931790925590519092917f9f520b3bfc56d06f7065d10b4683b3f57ac8895d5026cd176dee95ce1454cb8d91a350565b6001600160a01b03918216600090815260016020908152604080832093909416825291909152205460ff1690565b6000546001600160a01b031681565b600160209081526000928352604080842090915290825290205460ff1681565b600054604051638f9c79ed60e01b81526001600160a01b0390911690638f9c79ed906102fe90339060040161044f565b60206040518083038186803b15801561031657600080fd5b505afa15801561032a573d6000803e3d6000fd5b505050506040513d601f19601f8201168201806040525081019061034e919061042f565b61036a5760405162461bcd60e51b81526004016101719061046e565b3360008181526001602090815260408083206001600160a01b0386168085529252808320805460ff19169055519092917f825c8be24eb0df19500f63e86c29e7d0d951e73056b889b891d85e40938d9b6e91a350565b80356001600160a01b03811681146103d757600080fd5b919050565b6000602082840312156103ed578081fd5b6103f6826103c0565b9392505050565b6000806040838503121561040f578081fd5b610418836103c0565b9150610426602084016103c0565b90509250929050565b600060208284031215610440578081fd5b815180151581146103f6578182fd5b6001600160a01b0391909116815260200190565b901515815260200190565b6020808252601f908201527f4f6e6c792070617469656e74732063616e207265766f6b652061636365737300604082015260600190565b602080825260159082015274111bd8dd1bdc881b9bdd081c9959da5cdd195c9959605a1b604082015260600190565b6020808252601e908201527f4f6e6c792070617469656e74732063616e206772616e7420616363657373000060408201526060019056fea2646970667358221220b2c6fe6d09eb274e19f0f8cbdfa7939bfbe75a14fd0c1dbeb3a0ca7fd8742d5d64736f6c63430008000033",
  "immutableReferences": {},
  "source": "// SPDX-License-Identifier: MIT\npragma solidity ^0.8.0;\n\nimport \"./EHRRegistry.sol\";\n\ncontract AccessControl {\n    EHRRegistry public ehrRegistry;\n    \n    // Mapping of patient => doctor => access permission\n    mapping(address => mapping(address => bool)) public accessPermissions;\n    \n    // Events\n    event AccessGranted(address indexed patient, address indexed doctor);\n    event AccessRevoked(address indexed patient, address indexed doctor);\n    \n    constructor(address _ehrRegistryAddress) {\n        ehrRegistry = EHRRegistry(_ehrRegistryAddress);\n    }\n    \n    // Grant access to a doctor\n    function grantAccess(address _doctorId) public {\n        require(ehrRegistry.isPatient(msg.sender), \"Only patients can grant access\");\n        require(ehrRegistry.isDoctor(_doctorId), \"Doctor not registered\");\n        \n        accessPermissions[msg.sender][_doctorId] = true;\n        emit AccessGranted(msg.sender, _doctorId);\n    }\n    \n    // Revoke access from a doctor\n    function revokeAccess(address _doctorId) public {\n        require(ehrRegistry.isPatient(msg.sender), \"Only patients can revoke access\");\n        \n        accessPermissions[msg.sender][_doctorId] = false;\n        emit AccessRevoked(msg.sender, _doctorId);\n    }\n    \n    // Check if a doctor has access to a patient's records\n    function hasAccess(address _patientId, address _doctorId) public view returns (bool) {\n        return accessPermissions[_patientId][_doctorId];\n    }\n}\n",
  "sourcePath": "/home/vanir/ehr-blockchain/blockchain/smart-contracts/AccessControl.sol",
  "compiler": {
    "name": "solc",
    "version": "0.8.0+commit.c7dfd78e.Emscripten.clang"
  },
  "schemaVersion": "3.4.16",
  "updatedAt": "2025-03-20T16:00:29.860Z",
  "networkType": "ethereum",
  "devdoc": {
    "kind": "dev",
    "methods": {},
    "version": 1
  },
  "userdoc": {
    "kind": "user",
    "methods": {},
    "version": 1
  }
}