{
  "contractName": "EHRRegistry",
  "abi": [
    {
      "anonymous": false,
      "inputs": [
        {
          "indexed": true,
          "internalType": "address",
          "name": "id",
          "type": "address"
        },
        {
          "indexed": false,
          "internalType": "string",
          "name": "name",
          "type": "string"
        },
        {
          "indexed": false,
          "internalType": "string",
          "name": "specialty",
          "type": "string"
        }
      ],
      "name": "DoctorRegistered",
      "type": "event"
    },
    {
      "anonymous": false,
      "inputs": [
        {
          "indexed": true,
          "internalType": "address",
          "name": "id",
          "type": "address"
        },
        {
          "indexed": false,
          "internalType": "string",
          "name": "name",
          "type": "string"
        }
      ],
      "name": "PatientRegistered",
      "type": "event"
    },
    {
      "inputs": [
        {
          "internalType": "address",
          "name": "",
          "type": "address"
        }
      ],
      "name": "doctors",
      "outputs": [
        {
          "internalType": "string",
          "name": "name",
          "type": "string"
        },
        {
          "internalType": "string",
          "name": "specialty",
          "type": "string"
        },
        {
          "internalType": "bool",
          "name": "exists",
          "type": "bool"
        }
      ],
      "stateMutability": "view",
      "type": "function",
      "constant": true
    },
    {
      "inputs": [
        {
          "internalType": "address",
          "name": "",
          "type": "address"
        }
      ],
      "name": "patients",
      "outputs": [
        {
          "internalType": "string",
          "name": "name",
          "type": "string"
        },
        {
          "internalType": "string",
          "name": "dateOfBirth",
          "type": "string"
        },
        {
          "internalType": "bool",
          "name": "exists",
          "type": "bool"
        }
      ],
      "stateMutability": "view",
      "type": "function",
      "constant": true
    },
    {
      "inputs": [
        {
          "internalType": "string",
          "name": "_name",
          "type": "string"
        },
        {
          "internalType": "string",
          "name": "_dateOfBirth",
          "type": "string"
        }
      ],
      "name": "registerPatient",
      "outputs": [],
      "stateMutability": "nonpayable",
      "type": "function"
    },
    {
      "inputs": [
        {
          "internalType": "string",
          "name": "_name",
          "type": "string"
        },
        {
          "internalType": "string",
          "name": "_specialty",
          "type": "string"
        }
      ],
      "name": "registerDoctor",
      "outputs": [],
      "stateMutability": "nonpayable",
      "type": "function"
    },
    {
      "inputs": [
        {
          "internalType": "address",
          "name": "_id",
          "type": "address"
        }
      ],
      "name": "isPatient",
      "outputs": [
        {
          "internalType": "bool",
          "name": "",
          "type": "bool"
        }
      ],
      "stateMutability": "view",
      "type": "function",
      "constant": true
    },
    {
      "inputs": [
        {
          "internalType": "address",
          "name": "_id",
          "type": "address"
        }
      ],
      "name": "isDoctor",
      "outputs": [
        {
          "internalType": "bool",
          "name": "",
          "type": "bool"
        }
      ],
      "stateMutability": "view",
      "type": "function",
      "constant": true
    }
  ],
  "bytecode": "0x608060405234801561001057600080fd5b506107c2806100206000396000f3fe608060405234801561001057600080fd5b50600436106100625760003560e01c80630869cfbc1461006757806380911fa414610092578063833b46bb146100a75780638f9c79ed146100ba578063996440c6146100da578063a9583c22146100ed575b600080fd5b61007a61007536600461056f565b610100565b60405161008993929190610695565b60405180910390f35b6100a56100a036600461059d565b610235565b005b6100a56100b536600461059d565b61031f565b6100cd6100c836600461056f565b6103f8565b6040516100899190610649565b6100cd6100e836600461056f565b610419565b61007a6100fb36600461056f565b61043a565b60006020819052908152604090208054819061011b9061073b565b80601f01602080910402602001604051908101604052809291908181526020018280546101479061073b565b80156101945780601f1061016957610100808354040283529160200191610194565b820191906000526020600020905b81548152906001019060200180831161017757829003601f168201915b5050505050908060010180546101a99061073b565b80601f01602080910402602001604051908101604052809291908181526020018280546101d59061073b565b80156102225780601f106101f757610100808354040283529160200191610222565b820191906000526020600020905b81548152906001019060200180831161020557829003601f168201915b5050506002909301549192505060ff1683565b3360009081526020819052604090206002015460ff16156102715760405162461bcd60e51b8152600401610268906106cd565b60405180910390fd5b6040805160608101825283815260208082018490526001828401523360009081528082529290922081518051929391926102ae9284920190610455565b5060208281015180516102c79260018501920190610455565b50604091820151600291909101805460ff19169115159190911790555133907fc85b128388b9c331a2a5485dce4cd0f3db9f7c279d327ce95d6d39d6c94644c790610313908590610654565b60405180910390a25050565b3360009081526001602052604090206002015460ff16156103525760405162461bcd60e51b815260040161026890610704565b60408051606081018252838152602080820184905260018284018190523360009081529082529290922081518051929391926103919284920190610455565b5060208281015180516103aa9260018501920190610455565b50604091820151600291909101805460ff19169115159190911790555133907fbc3a5b2aeb1bc52e3d56d3fd3423dd66cea5ecff8ae1f3bd0d75a0e608da7b85906103139085908590610667565b6001600160a01b031660009081526020819052604090206002015460ff1690565b6001600160a01b031660009081526001602052604090206002015460ff1690565b60016020526000908152604090208054819061011b9061073b565b8280546104619061073b565b90600052602060002090601f01602090048101928261048357600085556104c9565b82601f1061049c57805160ff19168380011785556104c9565b828001600101855582156104c9579182015b828111156104c95782518255916020019190600101906104ae565b506104d59291506104d9565b5090565b5b808211156104d557600081556001016104da565b600082601f8301126104fe578081fd5b813567ffffffffffffffff8082111561051957610519610776565b604051601f8301601f19168101602001828111828210171561053d5761053d610776565b604052828152848301602001861015610554578384fd5b82602086016020830137918201602001929092529392505050565b600060208284031215610580578081fd5b81356001600160a01b0381168114610596578182fd5b9392505050565b600080604083850312156105af578081fd5b823567ffffffffffffffff808211156105c6578283fd5b6105d2868387016104ee565b935060208501359150808211156105e7578283fd5b506105f4858286016104ee565b9150509250929050565b60008151808452815b8181101561062357602081850181015186830182015201610607565b818111156106345782602083870101525b50601f01601f19169290920160200192915050565b901515815260200190565b60006020825261059660208301846105fe565b60006040825261067a60408301856105fe565b828103602084015261068c81856105fe565b95945050505050565b6000606082526106a860608301866105fe565b82810360208401526106ba81866105fe565b9150508215156040830152949350505050565b6020808252601a908201527f50617469656e7420616c72656164792072656769737465726564000000000000604082015260600190565b60208082526019908201527f446f63746f7220616c7265616479207265676973746572656400000000000000604082015260600190565b60028104600182168061074f57607f821691505b6020821081141561077057634e487b7160e01b600052602260045260246000fd5b50919050565b634e487b7160e01b600052604160045260246000fdfea264697066735822122091914b26eb039a43170bfe5222f9c441fe4b6cdd6bab8c94dceb72bb465bdce364736f6c63430008000033",
  "immutableReferences": {},
  "source": "// SPDX-License-Identifier: MIT\npragma solidity ^0.8.0;\n\ncontract EHRRegistry {\n    struct Patient {\n        string name;\n        string dateOfBirth;\n        bool exists;\n    }\n    \n    struct Doctor {\n        string name;\n        string specialty;\n        bool exists;\n    }\n    \n    // Mappings to store patients and doctors\n    mapping(address => Patient) public patients;\n    mapping(address => Doctor) public doctors;\n    \n    // Events\n    event PatientRegistered(address indexed id, string name);\n    event DoctorRegistered(address indexed id, string name, string specialty);\n    \n    // Register a new patient\n    function registerPatient(string memory _name, string memory _dateOfBirth) public {\n        require(!patients[msg.sender].exists, \"Patient already registered\");\n        \n        patients[msg.sender] = Patient({\n            name: _name,\n            dateOfBirth: _dateOfBirth,\n            exists: true\n        });\n        \n        emit PatientRegistered(msg.sender, _name);\n    }\n    \n    // Register a new doctor\n    function registerDoctor(string memory _name, string memory _specialty) public {\n        require(!doctors[msg.sender].exists, \"Doctor already registered\");\n        \n        doctors[msg.sender] = Doctor({\n            name: _name,\n            specialty: _specialty,\n            exists: true\n        });\n        \n        emit DoctorRegistered(msg.sender, _name, _specialty);\n    }\n    \n    // Check if an address is a registered patient\n    function isPatient(address _id) public view returns (bool) {\n        return patients[_id].exists;\n    }\n    \n    // Check if an address is a registered doctor\n    function isDoctor(address _id) public view returns (bool) {\n        return doctors[_id].exists;\n    }\n}\n",
  "sourcePath": "/home/vanir/ehr-blockchain/blockchain/smart-contracts/EHRRegistry.sol",
  "compiler": {
    "name": "solc",
    "version": "0.8.0+commit.c7dfd78e.Emscripten.clang"
  },
  "schemaVersion": "3.4.16",
  "updatedAt": "2025-03-20T16:00:29.856Z",
  "networkType": "ethereum",
  "devdoc": {
    "kind": "dev",
    "methods": {},
    "version": 1
  },
  "userdoc": {
    "kind": "user",
    "methods": {},
    "version": 1
  }
}