{
  "contractName": "PatientRecords",
  "abi": [
    {
      "inputs": [
        {
          "internalType": "address",
          "name": "_accessControlAddress",
          "type": "address"
        }
      ],
      "stateMutability": "nonpayable",
      "type": "constructor"
    },
    {
      "anonymous": false,
      "inputs": [
        {
          "indexed": true,
          "internalType": "address",
          "name": "patient",
          "type": "address"
        },
        {
          "indexed": false,
          "internalType": "string",
          "name": "dataHash",
          "type": "string"
        },
        {
          "indexed": false,
          "internalType": "address",
          "name": "addedBy",
          "type": "address"
        }
      ],
      "name": "RecordAdded",
      "type": "event"
    },
    {
      "inputs": [],
      "name": "accessControl",
      "outputs": [
        {
          "internalType": "contract AccessControl",
          "name": "",
          "type": "address"
        }
      ],
      "stateMutability": "view",
      "type": "function",
      "constant": true
    },
    {
      "inputs": [
        {
          "internalType": "address",
          "name": "",
          "type": "address"
        },
        {
          "internalType": "uint256",
          "name": "",
          "type": "uint256"
        }
      ],
      "name": "records",
      "outputs": [
        {
          "internalType": "string",
          "name": "dataHash",
          "type": "string"
        },
        {
          "internalType": "uint256",
          "name": "timestamp",
          "type": "uint256"
        },
        {
          "internalType": "address",
          "name": "addedBy",
          "type": "address"
        }
      ],
      "stateMutability": "view",
      "type": "function",
      "constant": true
    },
    {
      "inputs": [
        {
          "internalType": "address",
          "name": "_patientId",
          "type": "address"
        },
        {
          "internalType": "string",
          "name": "_dataHash",
          "type": "string"
        }
      ],
      "name": "addMedicalRecord",
      "outputs": [],
      "stateMutability": "nonpayable",
      "type": "function"
    },
    {
      "inputs": [
        {
          "internalType": "address",
          "name": "_patientId",
          "type": "address"
        }
      ],
      "name": "getPatientRecords",
      "outputs": [
        {
          "components": [
            {
              "internalType": "string",
              "name": "dataHash",
              "type": "string"
            },
            {
              "internalType": "uint256",
              "name": "timestamp",
              "type": "uint256"
            },
            {
              "internalType": "address",
              "name": "addedBy",
              "type": "address"
            }
          ],
          "internalType": "struct PatientRecords.MedicalRecord[]",
          "name": "",
          "type": "tuple[]"
        }
      ],
      "stateMutability": "view",
      "type": "function",
      "constant": true
    }
  ],
  "bytecode": "0x608060405234801561001057600080fd5b506040516109bb3803806109bb83398101604081905261002f91610054565b600080546001600160a01b0319166001600160a01b0392909216919091179055610082565b600060208284031215610065578081fd5b81516001600160a01b038116811461007b578182fd5b9392505050565b61092a806100916000396000f3fe608060405234801561001057600080fd5b506004361061004c5760003560e01c806313007d551461005157806318bd48471461006f5780633a9b131c1461008f57806382a6c0ac146100a4575b600080fd5b6100596100c6565b60405161006691906107c4565b60405180910390f35b61008261007d3660046105ba565b6100d5565b604051610066919061073d565b6100a261009d3660046105db565b6102b6565b005b6100b76100b236600461068f565b610431565b60405161006693929190610802565b6000546001600160a01b031681565b6060336001600160a01b038316148061016b5750600054604051631709ef0760e01b81526001600160a01b0390911690631709ef079061011b9085903390600401610723565b60206040518083038186803b15801561013357600080fd5b505afa158015610147573d6000803e3d6000fd5b505050506040513d601f19601f8201168201806040525081019061016b91906106b8565b6101905760405162461bcd60e51b81526004016101879061086c565b60405180910390fd5b6001600160a01b038216600090815260016020908152604080832080548251818502810185019093528083529193909284015b828210156102aa57838290600052602060002090600302016040518060600160405290816000820180546101f6906108a3565b80601f0160208091040260200160405190810160405280929190818152602001828054610222906108a3565b801561026f5780601f106102445761010080835404028352916020019161026f565b820191906000526020600020905b81548152906001019060200180831161025257829003601f168201915b50505091835250506001828101546020808401919091526002909301546001600160a01b0316604090920191909152918352920191016101c3565b5050505090505b919050565b336001600160a01b038316148061034a5750600054604051631709ef0760e01b81526001600160a01b0390911690631709ef07906102fa9085903390600401610723565b60206040518083038186803b15801561031257600080fd5b505afa158015610326573d6000803e3d6000fd5b505050506040513d601f19601f8201168201806040525081019061034a91906106b8565b6103665760405162461bcd60e51b815260040161018790610835565b6001600160a01b038216600090815260016020818152604080842081516060810183528681524281850152339281019290925280549384018155845292819020835180516003909402909101926103c0928492019061050a565b5060208201516001820155604091820151600290910180546001600160a01b0319166001600160a01b039283161790559051908316907f0162e5f82d0f9f6c8f00cc90a44c2fe43acd1f1da0641215282171672daad6fa9061042590849033906107d8565b60405180910390a25050565b6001602052816000526040600020818154811061044d57600080fd5b906000526020600020906003020160009150915050806000018054610471906108a3565b80601f016020809104026020016040519081016040528092919081815260200182805461049d906108a3565b80156104ea5780601f106104bf576101008083540402835291602001916104ea565b820191906000526020600020905b8154815290600101906020018083116104cd57829003601f168201915b5050505060018301546002909301549192916001600160a01b0316905083565b828054610516906108a3565b90600052602060002090601f016020900481019282610538576000855561057e565b82601f1061055157805160ff191683800117855561057e565b8280016001018555821561057e579182015b8281111561057e578251825591602001919060010190610563565b5061058a92915061058e565b5090565b5b8082111561058a576000815560010161058f565b80356001600160a01b03811681146102b157600080fd5b6000602082840312156105cb578081fd5b6105d4826105a3565b9392505050565b600080604083850312156105ed578081fd5b6105f6836105a3565b915060208084013567ffffffffffffffff80821115610613578384fd5b818601915086601f830112610626578384fd5b813581811115610638576106386108de565b604051601f8201601f191681018501838111828210171561065b5761065b6108de565b6040528181528382018501891015610671578586fd5b81858501868301378585838301015280955050505050509250929050565b600080604083850312156106a1578182fd5b6106aa836105a3565b946020939093013593505050565b6000602082840312156106c9578081fd5b815180151581146105d4578182fd5b60008151808452815b818110156106fd576020818501810151868301820152016106e1565b8181111561070e5782602083870101525b50601f01601f19169290920160200192915050565b6001600160a01b0392831681529116602082015260400190565b60208082528251828201819052600091906040908185019080840286018301878501865b838110156107b657603f19898403018552815160608151818652610787828701826106d8565b838b0151878c0152928901516001600160a01b0316958901959095525094870194925090860190600101610761565b509098975050505050505050565b6001600160a01b0391909116815260200190565b6000604082526107eb60408301856106d8565b905060018060a01b03831660208301529392505050565b60006060825261081560608301866106d8565b6020830194909452506001600160a01b0391909116604090910152919050565b6020808252601d908201527f4e6f7420617574686f72697a656420746f20616464207265636f726473000000604082015260600190565b6020808252601e908201527f4e6f7420617574686f72697a656420746f2076696577207265636f7264730000604082015260600190565b6002810460018216806108b757607f821691505b602082108114156108d857634e487b7160e01b600052602260045260246000fd5b50919050565b634e487b7160e01b600052604160045260246000fdfea26469706673582212206c8c4a6e7ece5495dc90de9f9cb7f3c5eeefb066f4965be454facfd13a3202ee64736f6c63430008000033",
  "immutableReferences": {},
  "source": "// SPDX-License-Identifier: MIT\npragma solidity ^0.8.0;\n\nimport \"./AccessControl.sol\";\n\ncontract PatientRecords {\n    AccessControl public accessControl;\n    \n    struct MedicalRecord {\n        string dataHash;  // IPFS hash\n        uint256 timestamp;\n        address addedBy;\n    }\n    \n    // Mapping of patient => array of medical records\n    mapping(address => MedicalRecord[]) public records;\n    \n    // Events\n    event RecordAdded(address indexed patient, string dataHash, address addedBy);\n    \n    constructor(address _accessControlAddress) {\n        accessControl = AccessControl(_accessControlAddress);\n    }\n    \n    // Add a new medical record\n    function addMedicalRecord(address _patientId, string memory _dataHash) \n        public {\n        // Check if sender is the patient or has access permission\n        require(\n            msg.sender == _patientId || \n            accessControl.hasAccess(_patientId, msg.sender),\n            \"Not authorized to add records\"\n        );\n        \n        records[_patientId].push(MedicalRecord({\n            dataHash: _dataHash,\n            timestamp: block.timestamp,\n            addedBy: msg.sender\n        }));\n        \n        emit RecordAdded(_patientId, _dataHash, msg.sender);\n    }\n    \n    // Get all medical records for a patient\n    function getPatientRecords(address _patientId) \n        public view \n        returns (MedicalRecord[] memory) {\n        // Check if sender is the patient or has access permission\n        require(\n            msg.sender == _patientId || \n            accessControl.hasAccess(_patientId, msg.sender),\n            \"Not authorized to view records\"\n        );\n        \n        return records[_patientId];\n    }\n}\n",
  "sourcePath": "/home/vanir/ehr-blockchain/blockchain/smart-contracts/PatientRecords.sol",
  "compiler": {
    "name": "solc",
    "version": "0.8.0+commit.c7dfd78e.Emscripten.clang"
  },
  "schemaVersion": "3.4.16",
  "updatedAt": "2025-03-20T16:00:29.862Z",
  "networkType": "ethereum",
  "devdoc": {
    "kind": "dev",
    "methods": {},
    "version": 1
  },
  "userdoc": {
    "kind": "user",
    "methods": {},
    "version": 1
  }
}